{
  "_format": "hh-sol-artifact-1",
  "contractName": "Domains",
  "sourceName": "contracts/Domains.sol",
  "abi": [
    {
      "inputs": [
        {
          "internalType": "string",
          "name": "_tld",
          "type": "string"
        }
      ],
      "stateMutability": "payable",
      "type": "constructor"
    },
    {
      "inputs": [
        {
          "internalType": "string",
          "name": "name",
          "type": "string"
        }
      ],
      "name": "InvalidName",
      "type": "error"
    },
    {
      "anonymous": false,
      "inputs": [
        {
          "indexed": true,
          "internalType": "address",
          "name": "owner",
          "type": "address"
        },
        {
          "indexed": true,
          "internalType": "address",
          "name": "approved",
          "type": "address"
        },
        {
          "indexed": true,
          "internalType": "uint256",
          "name": "tokenId",
          "type": "uint256"
        }
      ],
      "name": "Approval",
      "type": "event"
    },
    {
      "anonymous": false,
      "inputs": [
        {
          "indexed": true,
          "internalType": "address",
          "name": "owner",
          "type": "address"
        },
        {
          "indexed": true,
          "internalType": "address",
          "name": "operator",
          "type": "address"
        },
        {
          "indexed": false,
          "internalType": "bool",
          "name": "approved",
          "type": "bool"
        }
      ],
      "name": "ApprovalForAll",
      "type": "event"
    },
    {
      "anonymous": false,
      "inputs": [
        {
          "indexed": true,
          "internalType": "address",
          "name": "from",
          "type": "address"
        },
        {
          "indexed": true,
          "internalType": "address",
          "name": "to",
          "type": "address"
        },
        {
          "indexed": true,
          "internalType": "uint256",
          "name": "tokenId",
          "type": "uint256"
        }
      ],
      "name": "Transfer",
      "type": "event"
    },
    {
      "inputs": [
        {
          "internalType": "address",
          "name": "to",
          "type": "address"
        },
        {
          "internalType": "uint256",
          "name": "tokenId",
          "type": "uint256"
        }
      ],
      "name": "approve",
      "outputs": [],
      "stateMutability": "nonpayable",
      "type": "function"
    },
    {
      "inputs": [
        {
          "internalType": "address",
          "name": "owner",
          "type": "address"
        }
      ],
      "name": "balanceOf",
      "outputs": [
        {
          "internalType": "uint256",
          "name": "",
          "type": "uint256"
        }
      ],
      "stateMutability": "view",
      "type": "function"
    },
    {
      "inputs": [
        {
          "internalType": "string",
          "name": "",
          "type": "string"
        }
      ],
      "name": "domains",
      "outputs": [
        {
          "internalType": "address",
          "name": "",
          "type": "address"
        }
      ],
      "stateMutability": "view",
      "type": "function"
    },
    {
      "inputs": [
        {
          "internalType": "string",
          "name": "name",
          "type": "string"
        }
      ],
      "name": "getAddress",
      "outputs": [
        {
          "internalType": "address",
          "name": "",
          "type": "address"
        }
      ],
      "stateMutability": "view",
      "type": "function"
    },
    {
      "inputs": [],
      "name": "getAllNames",
      "outputs": [
        {
          "internalType": "string[]",
          "name": "",
          "type": "string[]"
        }
      ],
      "stateMutability": "view",
      "type": "function"
    },
    {
      "inputs": [
        {
          "internalType": "uint256",
          "name": "tokenId",
          "type": "uint256"
        }
      ],
      "name": "getApproved",
      "outputs": [
        {
          "internalType": "address",
          "name": "",
          "type": "address"
        }
      ],
      "stateMutability": "view",
      "type": "function"
    },
    {
      "inputs": [
        {
          "internalType": "string",
          "name": "name",
          "type": "string"
        }
      ],
      "name": "getRecord",
      "outputs": [
        {
          "internalType": "string",
          "name": "",
          "type": "string"
        }
      ],
      "stateMutability": "view",
      "type": "function"
    },
    {
      "inputs": [
        {
          "internalType": "address",
          "name": "owner",
          "type": "address"
        },
        {
          "internalType": "address",
          "name": "operator",
          "type": "address"
        }
      ],
      "name": "isApprovedForAll",
      "outputs": [
        {
          "internalType": "bool",
          "name": "",
          "type": "bool"
        }
      ],
      "stateMutability": "view",
      "type": "function"
    },
    {
      "inputs": [],
      "name": "name",
      "outputs": [
        {
          "internalType": "string",
          "name": "",
          "type": "string"
        }
      ],
      "stateMutability": "view",
      "type": "function"
    },
    {
      "inputs": [
        {
          "internalType": "uint256",
          "name": "",
          "type": "uint256"
        }
      ],
      "name": "names",
      "outputs": [
        {
          "internalType": "string",
          "name": "",
          "type": "string"
        }
      ],
      "stateMutability": "view",
      "type": "function"
    },
    {
      "inputs": [],
      "name": "owner",
      "outputs": [
        {
          "internalType": "address payable",
          "name": "",
          "type": "address"
        }
      ],
      "stateMutability": "view",
      "type": "function"
    },
    {
      "inputs": [
        {
          "internalType": "uint256",
          "name": "tokenId",
          "type": "uint256"
        }
      ],
      "name": "ownerOf",
      "outputs": [
        {
          "internalType": "address",
          "name": "",
          "type": "address"
        }
      ],
      "stateMutability": "view",
      "type": "function"
    },
    {
      "inputs": [
        {
          "internalType": "string",
          "name": "name",
          "type": "string"
        }
      ],
      "name": "price",
      "outputs": [
        {
          "internalType": "uint256",
          "name": "",
          "type": "uint256"
        }
      ],
      "stateMutability": "pure",
      "type": "function"
    },
    {
      "inputs": [
        {
          "internalType": "string",
          "name": "",
          "type": "string"
        }
      ],
      "name": "records",
      "outputs": [
        {
          "internalType": "string",
          "name": "",
          "type": "string"
        }
      ],
      "stateMutability": "view",
      "type": "function"
    },
    {
      "inputs": [
        {
          "internalType": "string",
          "name": "name",
          "type": "string"
        }
      ],
      "name": "register",
      "outputs": [],
      "stateMutability": "payable",
      "type": "function"
    },
    {
      "inputs": [
        {
          "internalType": "address",
          "name": "from",
          "type": "address"
        },
        {
          "internalType": "address",
          "name": "to",
          "type": "address"
        },
        {
          "internalType": "uint256",
          "name": "tokenId",
          "type": "uint256"
        }
      ],
      "name": "safeTransferFrom",
      "outputs": [],
      "stateMutability": "nonpayable",
      "type": "function"
    },
    {
      "inputs": [
        {
          "internalType": "address",
          "name": "from",
          "type": "address"
        },
        {
          "internalType": "address",
          "name": "to",
          "type": "address"
        },
        {
          "internalType": "uint256",
          "name": "tokenId",
          "type": "uint256"
        },
        {
          "internalType": "bytes",
          "name": "_data",
          "type": "bytes"
        }
      ],
      "name": "safeTransferFrom",
      "outputs": [],
      "stateMutability": "nonpayable",
      "type": "function"
    },
    {
      "inputs": [
        {
          "internalType": "address",
          "name": "operator",
          "type": "address"
        },
        {
          "internalType": "bool",
          "name": "approved",
          "type": "bool"
        }
      ],
      "name": "setApprovalForAll",
      "outputs": [],
      "stateMutability": "nonpayable",
      "type": "function"
    },
    {
      "inputs": [
        {
          "internalType": "string",
          "name": "name",
          "type": "string"
        },
        {
          "internalType": "string",
          "name": "record",
          "type": "string"
        }
      ],
      "name": "setRecord",
      "outputs": [],
      "stateMutability": "nonpayable",
      "type": "function"
    },
    {
      "inputs": [
        {
          "internalType": "bytes4",
          "name": "interfaceId",
          "type": "bytes4"
        }
      ],
      "name": "supportsInterface",
      "outputs": [
        {
          "internalType": "bool",
          "name": "",
          "type": "bool"
        }
      ],
      "stateMutability": "view",
      "type": "function"
    },
    {
      "inputs": [],
      "name": "symbol",
      "outputs": [
        {
          "internalType": "string",
          "name": "",
          "type": "string"
        }
      ],
      "stateMutability": "view",
      "type": "function"
    },
    {
      "inputs": [],
      "name": "tld",
      "outputs": [
        {
          "internalType": "string",
          "name": "",
          "type": "string"
        }
      ],
      "stateMutability": "view",
      "type": "function"
    },
    {
      "inputs": [
        {
          "internalType": "uint256",
          "name": "tokenId",
          "type": "uint256"
        }
      ],
      "name": "tokenURI",
      "outputs": [
        {
          "internalType": "string",
          "name": "",
          "type": "string"
        }
      ],
      "stateMutability": "view",
      "type": "function"
    },
    {
      "inputs": [
        {
          "internalType": "address",
          "name": "from",
          "type": "address"
        },
        {
          "internalType": "address",
          "name": "to",
          "type": "address"
        },
        {
          "internalType": "uint256",
          "name": "tokenId",
          "type": "uint256"
        }
      ],
      "name": "transferFrom",
      "outputs": [],
      "stateMutability": "nonpayable",
      "type": "function"
    },
    {
      "inputs": [
        {
          "internalType": "string",
          "name": "name",
          "type": "string"
        }
      ],
      "name": "valid",
      "outputs": [
        {
          "internalType": "bool",
          "name": "",
          "type": "bool"
        }
      ],
      "stateMutability": "pure",
      "type": "function"
    },
    {
      "inputs": [],
      "name": "withdraw",
      "outputs": [],
      "stateMutability": "nonpayable",
      "type": "function"
    }
  ],
  "bytecode": "0x6080604052604051806108a0016040528061086b81526020016200552561086b9139600d908051906020019062000038929190620002a8565b506040518060400160405280600d81526020017f3c2f746578743e3c2f7376673e00000000000000000000000000000000000000815250600e908051906020019062000086929190620002a8565b5060405162005d9038038062005d908339818101604052810190620000ac9190620004f5565b6040518060400160405280601b81526020017f506f6c79676f6e20446f6d61696e204e616d65205365727669636500000000008152506040518060400160405280600281526020017f4e53000000000000000000000000000000000000000000000000000000000000815250816000908051906020019062000130929190620002a8565b50806001908051906020019062000149929190620002a8565b505050806009908051906020019062000164929190620002a8565b5062000194604051806060016040528060358152602001620054f060359139620001dc60201b62001bc51760201c565b33600860006101000a81548173ffffffffffffffffffffffffffffffffffffffff021916908373ffffffffffffffffffffffffffffffffffffffff160217905550506200062c565b6200027c81604051602401620001f39190620005a3565b6040516020818303038152906040527f41304fac000000000000000000000000000000000000000000000000000000007bffffffffffffffffffffffffffffffffffffffffffffffffffffffff19166020820180517bffffffffffffffffffffffffffffffffffffffffffffffffffffffff83818316178352505050506200027f60201b60201c565b50565b60008151905060006a636f6e736f6c652e6c6f679050602083016000808483855afa5050505050565b828054620002b690620005f6565b90600052602060002090601f016020900481019282620002da576000855562000326565b82601f10620002f557805160ff191683800117855562000326565b8280016001018555821562000326579182015b828111156200032557825182559160200191906001019062000308565b5b50905062000335919062000339565b5090565b5b80821115620003545760008160009055506001016200033a565b5090565b6000604051905090565b600080fd5b600080fd5b600080fd5b600080fd5b6000601f19601f8301169050919050565b7f4e487b7100000000000000000000000000000000000000000000000000000000600052604160045260246000fd5b620003c18262000376565b810181811067ffffffffffffffff82111715620003e357620003e262000387565b5b80604052505050565b6000620003f862000358565b9050620004068282620003b6565b919050565b600067ffffffffffffffff82111562000429576200042862000387565b5b620004348262000376565b9050602081019050919050565b60005b838110156200046157808201518184015260208101905062000444565b8381111562000471576000848401525b50505050565b60006200048e62000488846200040b565b620003ec565b905082815260208101848484011115620004ad57620004ac62000371565b5b620004ba84828562000441565b509392505050565b600082601f830112620004da57620004d96200036c565b5b8151620004ec84826020860162000477565b91505092915050565b6000602082840312156200050e576200050d62000362565b5b600082015167ffffffffffffffff8111156200052f576200052e62000367565b5b6200053d84828501620004c2565b91505092915050565b600081519050919050565b600082825260208201905092915050565b60006200056f8262000546565b6200057b818562000551565b93506200058d81856020860162000441565b620005988162000376565b840191505092915050565b60006020820190508181036000830152620005bf818462000562565b905092915050565b7f4e487b7100000000000000000000000000000000000000000000000000000000600052602260045260246000fd5b600060028204905060018216806200060f57607f821691505b60208210811415620006265762000625620005c7565b5b50919050565b614eb4806200063c6000396000f3fe6080604052600436106101815760003560e01c806370a08231116100d1578063bf40fac11161008a578063e985e9c511610064578063e985e9c5146105de578063f2c298be1461061b578063fb825e5f14610637578063fe2c61981461066257610181565b8063bf40fac11461053b578063c1880a9814610578578063c87b56dd146105a157610181565b806370a08231146104195780638da5cb5b1461045657806395d89b41146104815780639791c097146104ac578063a22cb465146104e9578063b88d4fde1461051257610181565b8063264492351161013e57806342842e0e1161011857806342842e0e146103395780634622ab0314610362578063541e771d1461039f5780636352211e146103dc57610181565b806326449235146102ba5780632d551432146102f75780633ccfd60b1461032257610181565b806301ffc9a71461018657806306fdde03146101c3578063081812fc146101ee578063095ea7b31461022b57806311dd88451461025457806323b872dd14610291575b600080fd5b34801561019257600080fd5b506101ad60048036038101906101a89190613146565b61069f565b6040516101ba919061318e565b60405180910390f35b3480156101cf57600080fd5b506101d8610781565b6040516101e59190613242565b60405180910390f35b3480156101fa57600080fd5b506102156004803603810190610210919061329a565b610813565b6040516102229190613308565b60405180910390f35b34801561023757600080fd5b50610252600480360381019061024d919061334f565b610898565b005b34801561026057600080fd5b5061027b600480360381019061027691906133f4565b6109b0565b6040516102889190613242565b60405180910390f35b34801561029d57600080fd5b506102b860048036038101906102b39190613441565b610a63565b005b3480156102c657600080fd5b506102e160048036038101906102dc91906135c4565b610ac3565b6040516102ee9190613308565b60405180910390f35b34801561030357600080fd5b5061030c610b0c565b6040516103199190613242565b60405180910390f35b34801561032e57600080fd5b50610337610b9a565b005b34801561034557600080fd5b50610360600480360381019061035b9190613441565b610cdf565b005b34801561036e57600080fd5b506103896004803603810190610384919061329a565b610cff565b6040516103969190613242565b60405180910390f35b3480156103ab57600080fd5b506103c660048036038101906103c191906135c4565b610d9f565b6040516103d39190613242565b60405180910390f35b3480156103e857600080fd5b5061040360048036038101906103fe919061329a565b610e55565b6040516104109190613308565b60405180910390f35b34801561042557600080fd5b50610440600480360381019061043b919061360d565b610f07565b60405161044d9190613649565b60405180910390f35b34801561046257600080fd5b5061046b610fbf565b6040516104789190613685565b60405180910390f35b34801561048d57600080fd5b50610496610fe5565b6040516104a39190613242565b60405180910390f35b3480156104b857600080fd5b506104d360048036038101906104ce91906133f4565b611077565b6040516104e0919061318e565b60405180910390f35b3480156104f557600080fd5b50610510600480360381019061050b91906136cc565b61112b565b005b34801561051e57600080fd5b50610539600480360381019061053491906137ad565b611141565b005b34801561054757600080fd5b50610562600480360381019061055d91906133f4565b6111a3565b60405161056f9190613308565b60405180910390f35b34801561058457600080fd5b5061059f600480360381019061059a9190613830565b6111ee565b005b3480156105ad57600080fd5b506105c860048036038101906105c3919061329a565b6112a0565b6040516105d59190613242565b60405180910390f35b3480156105ea57600080fd5b50610605600480360381019061060091906138b1565b6113f2565b604051610612919061318e565b60405180910390f35b610635600480360381019061063091906133f4565b611486565b005b34801561064357600080fd5b5061064c61190b565b60405161065991906139fd565b60405180910390f35b34801561066e57600080fd5b50610689600480360381019061068491906133f4565b611ae9565b6040516106969190613649565b60405180910390f35b60007f80ac58cd000000000000000000000000000000000000000000000000000000007bffffffffffffffffffffffffffffffffffffffffffffffffffffffff1916827bffffffffffffffffffffffffffffffffffffffffffffffffffffffff1916148061076a57507f5b5e139f000000000000000000000000000000000000000000000000000000007bffffffffffffffffffffffffffffffffffffffffffffffffffffffff1916827bffffffffffffffffffffffffffffffffffffffffffffffffffffffff1916145b8061077a575061077982611c5e565b5b9050919050565b60606000805461079090613a4e565b80601f01602080910402602001604051908101604052809291908181526020018280546107bc90613a4e565b80156108095780601f106107de57610100808354040283529160200191610809565b820191906000526020600020905b8154815290600101906020018083116107ec57829003601f168201915b5050505050905090565b600061081e82611cc8565b61085d576040517f08c379a000000000000000000000000000000000000000000000000000000000815260040161085490613af2565b60405180910390fd5b6004600083815260200190815260200160002060009054906101000a900473ffffffffffffffffffffffffffffffffffffffff169050919050565b60006108a382610e55565b90508073ffffffffffffffffffffffffffffffffffffffff168373ffffffffffffffffffffffffffffffffffffffff161415610914576040517f08c379a000000000000000000000000000000000000000000000000000000000815260040161090b90613b84565b60405180910390fd5b8073ffffffffffffffffffffffffffffffffffffffff16610933611d34565b73ffffffffffffffffffffffffffffffffffffffff16148061096257506109618161095c611d34565b6113f2565b5b6109a1576040517f08c379a000000000000000000000000000000000000000000000000000000000815260040161099890613c16565b60405180910390fd5b6109ab8383611d3c565b505050565b6060600b83836040516109c4929190613c66565b908152602001604051809103902080546109dd90613a4e565b80601f0160208091040260200160405190810160405280929190818152602001828054610a0990613a4e565b8015610a565780601f10610a2b57610100808354040283529160200191610a56565b820191906000526020600020905b815481529060010190602001808311610a3957829003601f168201915b5050505050905092915050565b610a74610a6e611d34565b82611df5565b610ab3576040517f08c379a0000000000000000000000000000000000000000000000000000000008152600401610aaa90613cf1565b60405180910390fd5b610abe838383611ed3565b505050565b600a818051602081018201805184825260208301602085012081835280955050505050506000915054906101000a900473ffffffffffffffffffffffffffffffffffffffff1681565b60098054610b1990613a4e565b80601f0160208091040260200160405190810160405280929190818152602001828054610b4590613a4e565b8015610b925780601f10610b6757610100808354040283529160200191610b92565b820191906000526020600020905b815481529060010190602001808311610b7557829003601f168201915b505050505081565b600860009054906101000a900473ffffffffffffffffffffffffffffffffffffffff1673ffffffffffffffffffffffffffffffffffffffff163373ffffffffffffffffffffffffffffffffffffffff1614610c2a576040517f08c379a0000000000000000000000000000000000000000000000000000000008152600401610c2190613d5d565b60405180910390fd5b600047905060003373ffffffffffffffffffffffffffffffffffffffff1682604051610c5590613dae565b60006040518083038185875af1925050503d8060008114610c92576040519150601f19603f3d011682016040523d82523d6000602084013e610c97565b606091505b5050905080610cdb576040517f08c379a0000000000000000000000000000000000000000000000000000000008152600401610cd290613e0f565b60405180910390fd5b5050565b610cfa83838360405180602001604052806000815250611141565b505050565b600c6020528060005260406000206000915090508054610d1e90613a4e565b80601f0160208091040260200160405190810160405280929190818152602001828054610d4a90613a4e565b8015610d975780601f10610d6c57610100808354040283529160200191610d97565b820191906000526020600020905b815481529060010190602001808311610d7a57829003601f168201915b505050505081565b600b818051602081018201805184825260208301602085012081835280955050505050506000915090508054610dd490613a4e565b80601f0160208091040260200160405190810160405280929190818152602001828054610e0090613a4e565b8015610e4d5780601f10610e2257610100808354040283529160200191610e4d565b820191906000526020600020905b815481529060010190602001808311610e3057829003601f168201915b505050505081565b6000806002600084815260200190815260200160002060009054906101000a900473ffffffffffffffffffffffffffffffffffffffff169050600073ffffffffffffffffffffffffffffffffffffffff168173ffffffffffffffffffffffffffffffffffffffff161415610efe576040517f08c379a0000000000000000000000000000000000000000000000000000000008152600401610ef590613ea1565b60405180910390fd5b80915050919050565b60008073ffffffffffffffffffffffffffffffffffffffff168273ffffffffffffffffffffffffffffffffffffffff161415610f78576040517f08c379a0000000000000000000000000000000000000000000000000000000008152600401610f6f90613f33565b60405180910390fd5b600360008373ffffffffffffffffffffffffffffffffffffffff1673ffffffffffffffffffffffffffffffffffffffff168152602001908152602001600020549050919050565b600860009054906101000a900473ffffffffffffffffffffffffffffffffffffffff1681565b606060018054610ff490613a4e565b80601f016020809104026020016040519081016040528092919081815260200182805461102090613a4e565b801561106d5780601f106110425761010080835404028352916020019161106d565b820191906000526020600020905b81548152906001019060200180831161105057829003601f168201915b5050505050905090565b600060036110c884848080601f016020809104026020016040519081016040528093929190818152602001838380828437600081840152601f19601f8201169050808301925050505050505061213a565b101580156111235750600a61112084848080601f016020809104026020016040519081016040528093929190818152602001838380828437600081840152601f19601f8201169050808301925050505050505061213a565b11155b905092915050565b61113d611136611d34565b83836122ef565b5050565b61115261114c611d34565b83611df5565b611191576040517f08c379a000000000000000000000000000000000000000000000000000000000815260040161118890613cf1565b60405180910390fd5b61119d8484848461245c565b50505050565b6000600a83836040516111b7929190613c66565b908152602001604051809103902060009054906101000a900473ffffffffffffffffffffffffffffffffffffffff16905092915050565b83833373ffffffffffffffffffffffffffffffffffffffff16600a8383604051611219929190613c66565b908152602001604051809103902060009054906101000a900473ffffffffffffffffffffffffffffffffffffffff1673ffffffffffffffffffffffffffffffffffffffff161461126857600080fd5b8383600b888860405161127c929190613c66565b90815260200160405180910390209190611297929190612fb1565b50505050505050565b60606112ab82611cc8565b6112ea576040517f08c379a00000000000000000000000000000000000000000000000000000000081526004016112e190613fc5565b60405180910390fd5b600060066000848152602001908152602001600020805461130a90613a4e565b80601f016020809104026020016040519081016040528092919081815260200182805461133690613a4e565b80156113835780601f1061135857610100808354040283529160200191611383565b820191906000526020600020905b81548152906001019060200180831161136657829003601f168201915b5050505050905060006113946124b8565b90506000815114156113aa5781925050506113ed565b6000825111156113df5780826040516020016113c7929190614016565b604051602081830303815290604052925050506113ed565b6113e8846124cf565b925050505b919050565b6000600560008473ffffffffffffffffffffffffffffffffffffffff1673ffffffffffffffffffffffffffffffffffffffff16815260200190815260200160002060008373ffffffffffffffffffffffffffffffffffffffff1673ffffffffffffffffffffffffffffffffffffffff16815260200190815260200160002060009054906101000a900460ff16905092915050565b600073ffffffffffffffffffffffffffffffffffffffff16600a83836040516114b0929190613c66565b908152602001604051809103902060009054906101000a900473ffffffffffffffffffffffffffffffffffffffff1673ffffffffffffffffffffffffffffffffffffffff1614611535576040517f08c379a000000000000000000000000000000000000000000000000000000000815260040161152c90614086565b60405180910390fd5b61153f8282611077565b6115825781816040517f7f19f48d0000000000000000000000000000000000000000000000000000000081526004016115799291906140d3565b60405180910390fd5b600061158e8383611ae9565b90508034116115d2576040517f08c379a00000000000000000000000000000000000000000000000000000000081526004016115c990614143565b60405180910390fd5b6000838360096040516020016115ea93929190614243565b60405160208183030381529060405290506000600d82600e60405160200161161493929190614274565b604051602081830303815290604052905060006116316007612576565b9050600061168287878080601f016020809104026020016040519081016040528093929190818152602001838380828437600081840152601f19601f8201169050808301925050505050505061213a565b9050600061168f82612584565b90506117836040518060600160405280602f8152602001614e10602f913989898080601f016020809104026020016040519081016040528093929190818152602001838380828437600081840152601f19601f82011690508083019250505050505050600980546116ff90613a4e565b80601f016020809104026020016040519081016040528092919081815260200182805461172b90613a4e565b80156117785780601f1061174d57610100808354040283529160200191611778565b820191906000526020600020905b81548152906001019060200180831161175b57829003601f168201915b5050505050866126e5565b60006117bb898961179388612787565b856040516020016117a79493929190614421565b604051602081830303815290604052612787565b90506000816040516020016117d091906144cc565b60405160208183030381529060405290506118206040518060400160405280601081526020017f46696e616c20546f6b65205552493a20000000000000000000000000000000008152508261291f565b61182a33866129bb565b61183485826129d9565b33600a8b8b604051611847929190613c66565b908152602001604051809103902060006101000a81548173ffffffffffffffffffffffffffffffffffffffff021916908373ffffffffffffffffffffffffffffffffffffffff1602179055508989600c600088815260200190815260200160002091906118b5929190612fb1565b506118c06007612a4d565b6118ff6040518060400160405280601e81526020017f257320686173207265676973746572656420646f6d61696e206e616d6521000081525033612a63565b50505050505050505050565b606061194b6040518060400160405280601f81526020017f47657474696e6720616c6c206e616d65732066726f6d20636f6e747261637400815250611bc5565b60006119576007612576565b67ffffffffffffffff8111156119705761196f613499565b5b6040519080825280602002602001820160405280156119a357816020015b606081526020019060019003908161198e5790505b50905060005b6119b36007612576565b811015611ae157600c600082815260200190815260200160002080546119d890613a4e565b80601f0160208091040260200160405190810160405280929190818152602001828054611a0490613a4e565b8015611a515780601f10611a2657610100808354040283529160200191611a51565b820191906000526020600020905b815481529060010190602001808311611a3457829003601f168201915b5050505050828281518110611a6957611a686144ee565b5b6020026020010181905250611ace6040518060400160405280601a81526020017f6e616d6520666f7220746f6b656e20696420257320697320257300000000000081525082848481518110611ac157611ac06144ee565b5b6020026020010151612aff565b8080611ad99061454c565b9150506119a9565b508091505090565b600080611b3984848080601f016020809104026020016040519081016040528093929190818152602001838380828437600081840152601f19601f8201169050808301925050505050505061213a565b905060008111611b7e576040517f08c379a0000000000000000000000000000000000000000000000000000000008152600401611b75906145e1565b60405180910390fd5b6003811415611b98576706f05b59d3b20000915050611bbf565b6004811415611bb257670429d069189e0000915050611bbf565b67016345785d8a00009150505b92915050565b611c5b81604051602401611bd99190613242565b6040516020818303038152906040527f41304fac000000000000000000000000000000000000000000000000000000007bffffffffffffffffffffffffffffffffffffffffffffffffffffffff19166020820180517bffffffffffffffffffffffffffffffffffffffffffffffffffffffff8381831617835250505050612b9e565b50565b60007f01ffc9a7000000000000000000000000000000000000000000000000000000007bffffffffffffffffffffffffffffffffffffffffffffffffffffffff1916827bffffffffffffffffffffffffffffffffffffffffffffffffffffffff1916149050919050565b60008073ffffffffffffffffffffffffffffffffffffffff166002600084815260200190815260200160002060009054906101000a900473ffffffffffffffffffffffffffffffffffffffff1673ffffffffffffffffffffffffffffffffffffffff1614159050919050565b600033905090565b816004600083815260200190815260200160002060006101000a81548173ffffffffffffffffffffffffffffffffffffffff021916908373ffffffffffffffffffffffffffffffffffffffff160217905550808273ffffffffffffffffffffffffffffffffffffffff16611daf83610e55565b73ffffffffffffffffffffffffffffffffffffffff167f8c5be1e5ebec7d5bd14f71427d1e84f3dd0314c0f7b2291e5b200ac8c7c3b92560405160405180910390a45050565b6000611e0082611cc8565b611e3f576040517f08c379a0000000000000000000000000000000000000000000000000000000008152600401611e3690614673565b60405180910390fd5b6000611e4a83610e55565b90508073ffffffffffffffffffffffffffffffffffffffff168473ffffffffffffffffffffffffffffffffffffffff161480611eb957508373ffffffffffffffffffffffffffffffffffffffff16611ea184610813565b73ffffffffffffffffffffffffffffffffffffffff16145b80611eca5750611ec981856113f2565b5b91505092915050565b8273ffffffffffffffffffffffffffffffffffffffff16611ef382610e55565b73ffffffffffffffffffffffffffffffffffffffff1614611f49576040517f08c379a0000000000000000000000000000000000000000000000000000000008152600401611f4090614705565b60405180910390fd5b600073ffffffffffffffffffffffffffffffffffffffff168273ffffffffffffffffffffffffffffffffffffffff161415611fb9576040517f08c379a0000000000000000000000000000000000000000000000000000000008152600401611fb090614797565b60405180910390fd5b611fc4838383612bc7565b611fcf600082611d3c565b6001600360008573ffffffffffffffffffffffffffffffffffffffff1673ffffffffffffffffffffffffffffffffffffffff168152602001908152602001600020600082825461201f91906147b7565b925050819055506001600360008473ffffffffffffffffffffffffffffffffffffffff1673ffffffffffffffffffffffffffffffffffffffff168152602001908152602001600020600082825461207691906147eb565b92505081905550816002600083815260200190815260200160002060006101000a81548173ffffffffffffffffffffffffffffffffffffffff021916908373ffffffffffffffffffffffffffffffffffffffff160217905550808273ffffffffffffffffffffffffffffffffffffffff168473ffffffffffffffffffffffffffffffffffffffff167fddf252ad1be2c89b69c2b068fc378daa952ba7f163c4a11628f55a4df523b3ef60405160405180910390a4612135838383612bcc565b505050565b60008060008084519050600092505b808210156122e4576000858381518110612166576121656144ee565b5b602001015160f81c60f81b9050608060f81b817effffffffffffffffffffffffffffffffffffffffffffffffffffffffffffff191610156121b5576001836121ae91906147eb565b92506122d0565b60e060f81b817effffffffffffffffffffffffffffffffffffffffffffffffffffffffffffff191610156121f7576002836121f091906147eb565b92506122cf565b60f060f81b817effffffffffffffffffffffffffffffffffffffffffffffffffffffffffffff191610156122395760038361223291906147eb565b92506122ce565b60f8801b817effffffffffffffffffffffffffffffffffffffffffffffffffffffffffffff1916101561227a5760048361227391906147eb565b92506122cd565b60fc60f81b817effffffffffffffffffffffffffffffffffffffffffffffffffffffffffffff191610156122bc576005836122b591906147eb565b92506122cc565b6006836122c991906147eb565b92505b5b5b5b5b5082806122dc9061454c565b935050612149565b829350505050919050565b8173ffffffffffffffffffffffffffffffffffffffff168373ffffffffffffffffffffffffffffffffffffffff16141561235e576040517f08c379a00000000000000000000000000000000000000000000000000000000081526004016123559061488d565b60405180910390fd5b80600560008573ffffffffffffffffffffffffffffffffffffffff1673ffffffffffffffffffffffffffffffffffffffff16815260200190815260200160002060008473ffffffffffffffffffffffffffffffffffffffff1673ffffffffffffffffffffffffffffffffffffffff16815260200190815260200160002060006101000a81548160ff0219169083151502179055508173ffffffffffffffffffffffffffffffffffffffff168373ffffffffffffffffffffffffffffffffffffffff167f17307eab39ab6107e8899845ad3d59bd9653f200f220920489ca2b5937696c318360405161244f919061318e565b60405180910390a3505050565b612467848484611ed3565b61247384848484612bd1565b6124b2576040517f08c379a00000000000000000000000000000000000000000000000000000000081526004016124a99061491f565b60405180910390fd5b50505050565b606060405180602001604052806000815250905090565b60606124da82611cc8565b612519576040517f08c379a0000000000000000000000000000000000000000000000000000000008152600401612510906149b1565b60405180910390fd5b60006125236124b8565b90506000815111612543576040518060200160405280600081525061256e565b8061254d84612584565b60405160200161255e929190614016565b6040516020818303038152906040525b915050919050565b600081600001549050919050565b606060008214156125cc576040518060400160405280600181526020017f300000000000000000000000000000000000000000000000000000000000000081525090506126e0565b600082905060005b600082146125fe5780806125e79061454c565b915050600a826125f79190614a00565b91506125d4565b60008167ffffffffffffffff81111561261a57612619613499565b5b6040519080825280601f01601f19166020018201604052801561264c5781602001600182028036833780820191505090505b5090505b600085146126d95760018261266591906147b7565b9150600a856126749190614a31565b603061268091906147eb565b60f81b818381518110612696576126956144ee565b5b60200101907effffffffffffffffffffffffffffffffffffffffffffffffffffffffffffff1916908160001a905350600a856126d29190614a00565b9450612650565b8093505050505b919050565b612781848484846040516024016126ff9493929190614a62565b6040516020818303038152906040527f9fd009f5000000000000000000000000000000000000000000000000000000007bffffffffffffffffffffffffffffffffffffffffffffffffffffffff19166020820180517bffffffffffffffffffffffffffffffffffffffffffffffffffffffff8381831617835250505050612b9e565b50505050565b606060008251905060008114156127b0576040518060200160405280600081525091505061291a565b600060036002836127c191906147eb565b6127cb9190614a00565b60046127d79190614abc565b905060006020826127e891906147eb565b67ffffffffffffffff81111561280157612800613499565b5b6040519080825280601f01601f1916602001820160405280156128335781602001600182028036833780820191505090505b5090506000604051806060016040528060408152602001614e3f604091399050600181016020830160005b868110156128d75760038101905062ffffff818a015116603f8160121c168401518060081b905060ff603f83600c1c1686015116810190508060081b905060ff603f8360061c1686015116810190508060081b905060ff603f831686015116810190508060e01b9050808452600484019350505061285e565b5060038606600181146128f157600281146129015761290c565b613d3d60f01b600283035261290c565b603d60f81b60018303525b508484525050819450505050505b919050565b6129b78282604051602401612935929190614b16565b6040516020818303038152906040527f4b5c4277000000000000000000000000000000000000000000000000000000007bffffffffffffffffffffffffffffffffffffffffffffffffffffffff19166020820180517bffffffffffffffffffffffffffffffffffffffffffffffffffffffff8381831617835250505050612b9e565b5050565b6129d5828260405180602001604052806000815250612d59565b5050565b6129e282611cc8565b612a21576040517f08c379a0000000000000000000000000000000000000000000000000000000008152600401612a1890614bbf565b60405180910390fd5b80600660008481526020019081526020016000209080519060200190612a48929190613037565b505050565b6001816000016000828254019250508190555050565b612afb8282604051602401612a79929190614bdf565b6040516020818303038152906040527f319af333000000000000000000000000000000000000000000000000000000007bffffffffffffffffffffffffffffffffffffffffffffffffffffffff19166020820180517bffffffffffffffffffffffffffffffffffffffffffffffffffffffff8381831617835250505050612b9e565b5050565b612b99838383604051602401612b1793929190614c0f565b6040516020818303038152906040527fa3f5c739000000000000000000000000000000000000000000000000000000007bffffffffffffffffffffffffffffffffffffffffffffffffffffffff19166020820180517bffffffffffffffffffffffffffffffffffffffffffffffffffffffff8381831617835250505050612b9e565b505050565b60008151905060006a636f6e736f6c652e6c6f679050602083016000808483855afa5050505050565b505050565b505050565b6000612bf28473ffffffffffffffffffffffffffffffffffffffff16612db4565b15612d4c578373ffffffffffffffffffffffffffffffffffffffff1663150b7a02612c1b611d34565b8786866040518563ffffffff1660e01b8152600401612c3d9493929190614ca9565b6020604051808303816000875af1925050508015612c7957506040513d601f19601f82011682018060405250810190612c769190614d0a565b60015b612cfc573d8060008114612ca9576040519150601f19603f3d011682016040523d82523d6000602084013e612cae565b606091505b50600081511415612cf4576040517f08c379a0000000000000000000000000000000000000000000000000000000008152600401612ceb9061491f565b60405180910390fd5b805181602001fd5b63150b7a0260e01b7bffffffffffffffffffffffffffffffffffffffffffffffffffffffff1916817bffffffffffffffffffffffffffffffffffffffffffffffffffffffff191614915050612d51565b600190505b949350505050565b612d638383612dd7565b612d706000848484612bd1565b612daf576040517f08c379a0000000000000000000000000000000000000000000000000000000008152600401612da69061491f565b60405180910390fd5b505050565b6000808273ffffffffffffffffffffffffffffffffffffffff163b119050919050565b600073ffffffffffffffffffffffffffffffffffffffff168273ffffffffffffffffffffffffffffffffffffffff161415612e47576040517f08c379a0000000000000000000000000000000000000000000000000000000008152600401612e3e90614d83565b60405180910390fd5b612e5081611cc8565b15612e90576040517f08c379a0000000000000000000000000000000000000000000000000000000008152600401612e8790614def565b60405180910390fd5b612e9c60008383612bc7565b6001600360008473ffffffffffffffffffffffffffffffffffffffff1673ffffffffffffffffffffffffffffffffffffffff1681526020019081526020016000206000828254612eec91906147eb565b92505081905550816002600083815260200190815260200160002060006101000a81548173ffffffffffffffffffffffffffffffffffffffff021916908373ffffffffffffffffffffffffffffffffffffffff160217905550808273ffffffffffffffffffffffffffffffffffffffff16600073ffffffffffffffffffffffffffffffffffffffff167fddf252ad1be2c89b69c2b068fc378daa952ba7f163c4a11628f55a4df523b3ef60405160405180910390a4612fad60008383612bcc565b5050565b828054612fbd90613a4e565b90600052602060002090601f016020900481019282612fdf5760008555613026565b82601f10612ff857803560ff1916838001178555613026565b82800160010185558215613026579182015b8281111561302557823582559160200191906001019061300a565b5b50905061303391906130bd565b5090565b82805461304390613a4e565b90600052602060002090601f01602090048101928261306557600085556130ac565b82601f1061307e57805160ff19168380011785556130ac565b828001600101855582156130ac579182015b828111156130ab578251825591602001919060010190613090565b5b5090506130b991906130bd565b5090565b5b808211156130d65760008160009055506001016130be565b5090565b6000604051905090565b600080fd5b600080fd5b60007fffffffff0000000000000000000000000000000000000000000000000000000082169050919050565b613123816130ee565b811461312e57600080fd5b50565b6000813590506131408161311a565b92915050565b60006020828403121561315c5761315b6130e4565b5b600061316a84828501613131565b91505092915050565b60008115159050919050565b61318881613173565b82525050565b60006020820190506131a3600083018461317f565b92915050565b600081519050919050565b600082825260208201905092915050565b60005b838110156131e35780820151818401526020810190506131c8565b838111156131f2576000848401525b50505050565b6000601f19601f8301169050919050565b6000613214826131a9565b61321e81856131b4565b935061322e8185602086016131c5565b613237816131f8565b840191505092915050565b6000602082019050818103600083015261325c8184613209565b905092915050565b6000819050919050565b61327781613264565b811461328257600080fd5b50565b6000813590506132948161326e565b92915050565b6000602082840312156132b0576132af6130e4565b5b60006132be84828501613285565b91505092915050565b600073ffffffffffffffffffffffffffffffffffffffff82169050919050565b60006132f2826132c7565b9050919050565b613302816132e7565b82525050565b600060208201905061331d60008301846132f9565b92915050565b61332c816132e7565b811461333757600080fd5b50565b60008135905061334981613323565b92915050565b60008060408385031215613366576133656130e4565b5b60006133748582860161333a565b925050602061338585828601613285565b9150509250929050565b600080fd5b600080fd5b600080fd5b60008083601f8401126133b4576133b361338f565b5b8235905067ffffffffffffffff8111156133d1576133d0613394565b5b6020830191508360018202830111156133ed576133ec613399565b5b9250929050565b6000806020838503121561340b5761340a6130e4565b5b600083013567ffffffffffffffff811115613429576134286130e9565b5b6134358582860161339e565b92509250509250929050565b60008060006060848603121561345a576134596130e4565b5b60006134688682870161333a565b93505060206134798682870161333a565b925050604061348a86828701613285565b9150509250925092565b600080fd5b7f4e487b7100000000000000000000000000000000000000000000000000000000600052604160045260246000fd5b6134d1826131f8565b810181811067ffffffffffffffff821117156134f0576134ef613499565b5b80604052505050565b60006135036130da565b905061350f82826134c8565b919050565b600067ffffffffffffffff82111561352f5761352e613499565b5b613538826131f8565b9050602081019050919050565b82818337600083830152505050565b600061356761356284613514565b6134f9565b90508281526020810184848401111561358357613582613494565b5b61358e848285613545565b509392505050565b600082601f8301126135ab576135aa61338f565b5b81356135bb848260208601613554565b91505092915050565b6000602082840312156135da576135d96130e4565b5b600082013567ffffffffffffffff8111156135f8576135f76130e9565b5b61360484828501613596565b91505092915050565b600060208284031215613623576136226130e4565b5b60006136318482850161333a565b91505092915050565b61364381613264565b82525050565b600060208201905061365e600083018461363a565b92915050565b600061366f826132c7565b9050919050565b61367f81613664565b82525050565b600060208201905061369a6000830184613676565b92915050565b6136a981613173565b81146136b457600080fd5b50565b6000813590506136c6816136a0565b92915050565b600080604083850312156136e3576136e26130e4565b5b60006136f18582860161333a565b9250506020613702858286016136b7565b9150509250929050565b600067ffffffffffffffff82111561372757613726613499565b5b613730826131f8565b9050602081019050919050565b600061375061374b8461370c565b6134f9565b90508281526020810184848401111561376c5761376b613494565b5b613777848285613545565b509392505050565b600082601f8301126137945761379361338f565b5b81356137a484826020860161373d565b91505092915050565b600080600080608085870312156137c7576137c66130e4565b5b60006137d58782880161333a565b94505060206137e68782880161333a565b93505060406137f787828801613285565b925050606085013567ffffffffffffffff811115613818576138176130e9565b5b6138248782880161377f565b91505092959194509250565b6000806000806040858703121561384a576138496130e4565b5b600085013567ffffffffffffffff811115613868576138676130e9565b5b6138748782880161339e565b9450945050602085013567ffffffffffffffff811115613897576138966130e9565b5b6138a38782880161339e565b925092505092959194509250565b600080604083850312156138c8576138c76130e4565b5b60006138d68582860161333a565b92505060206138e78582860161333a565b9150509250929050565b600081519050919050565b600082825260208201905092915050565b6000819050602082019050919050565b600082825260208201905092915050565b6000613939826131a9565b613943818561391d565b93506139538185602086016131c5565b61395c816131f8565b840191505092915050565b6000613973838361392e565b905092915050565b6000602082019050919050565b6000613993826138f1565b61399d81856138fc565b9350836020820285016139af8561390d565b8060005b858110156139eb57848403895281516139cc8582613967565b94506139d78361397b565b925060208a019950506001810190506139b3565b50829750879550505050505092915050565b60006020820190508181036000830152613a178184613988565b905092915050565b7f4e487b7100000000000000000000000000000000000000000000000000000000600052602260045260246000fd5b60006002820490506001821680613a6657607f821691505b60208210811415613a7a57613a79613a1f565b5b50919050565b7f4552433732313a20617070726f76656420717565727920666f72206e6f6e657860008201527f697374656e7420746f6b656e0000000000000000000000000000000000000000602082015250565b6000613adc602c836131b4565b9150613ae782613a80565b604082019050919050565b60006020820190508181036000830152613b0b81613acf565b9050919050565b7f4552433732313a20617070726f76616c20746f2063757272656e74206f776e6560008201527f7200000000000000000000000000000000000000000000000000000000000000602082015250565b6000613b6e6021836131b4565b9150613b7982613b12565b604082019050919050565b60006020820190508181036000830152613b9d81613b61565b9050919050565b7f4552433732313a20617070726f76652063616c6c6572206973206e6f74206f7760008201527f6e6572206e6f7220617070726f76656420666f7220616c6c0000000000000000602082015250565b6000613c006038836131b4565b9150613c0b82613ba4565b604082019050919050565b60006020820190508181036000830152613c2f81613bf3565b9050919050565b600081905092915050565b6000613c4d8385613c36565b9350613c5a838584613545565b82840190509392505050565b6000613c73828486613c41565b91508190509392505050565b7f4552433732313a207472616e736665722063616c6c6572206973206e6f74206f60008201527f776e6572206e6f7220617070726f766564000000000000000000000000000000602082015250565b6000613cdb6031836131b4565b9150613ce682613c7f565b604082019050919050565b60006020820190508181036000830152613d0a81613cce565b9050919050565b7f4f6e6c79204f776e65722063616e2077697468647261772066756e6473210000600082015250565b6000613d47601e836131b4565b9150613d5282613d11565b602082019050919050565b60006020820190508181036000830152613d7681613d3a565b9050919050565b600081905092915050565b50565b6000613d98600083613d7d565b9150613da382613d88565b600082019050919050565b6000613db982613d8b565b9150819050919050565b7f4661696c656420746f2077697468647261772066756e64732100000000000000600082015250565b6000613df96019836131b4565b9150613e0482613dc3565b602082019050919050565b60006020820190508181036000830152613e2881613dec565b9050919050565b7f4552433732313a206f776e657220717565727920666f72206e6f6e657869737460008201527f656e7420746f6b656e0000000000000000000000000000000000000000000000602082015250565b6000613e8b6029836131b4565b9150613e9682613e2f565b604082019050919050565b60006020820190508181036000830152613eba81613e7e565b9050919050565b7f4552433732313a2062616c616e636520717565727920666f7220746865207a6560008201527f726f206164647265737300000000000000000000000000000000000000000000602082015250565b6000613f1d602a836131b4565b9150613f2882613ec1565b604082019050919050565b60006020820190508181036000830152613f4c81613f10565b9050919050565b7f45524337323155524953746f726167653a2055524920717565727920666f722060008201527f6e6f6e6578697374656e7420746f6b656e000000000000000000000000000000602082015250565b6000613faf6031836131b4565b9150613fba82613f53565b604082019050919050565b60006020820190508181036000830152613fde81613fa2565b9050919050565b6000613ff0826131a9565b613ffa8185613c36565b935061400a8185602086016131c5565b80840191505092915050565b60006140228285613fe5565b915061402e8284613fe5565b91508190509392505050565b7f446f6d61696e20416c7265616479206578697374730000000000000000000000600082015250565b60006140706015836131b4565b915061407b8261403a565b602082019050919050565b6000602082019050818103600083015261409f81614063565b9050919050565b60006140b283856131b4565b93506140bf838584613545565b6140c8836131f8565b840190509392505050565b600060208201905081810360008301526140ee8184866140a6565b90509392505050565b7f4e6f7420656e6f75676820666565732070616964210000000000000000000000600082015250565b600061412d6015836131b4565b9150614138826140f7565b602082019050919050565b6000602082019050818103600083015261415c81614120565b9050919050565b7f2e00000000000000000000000000000000000000000000000000000000000000600082015250565b6000614199600183613c36565b91506141a482614163565b600182019050919050565b60008190508160005260206000209050919050565b600081546141d181613a4e565b6141db8186613c36565b945060018216600081146141f657600181146142075761423a565b60ff1983168652818601935061423a565b614210856141af565b60005b8381101561423257815481890152600182019150602081019050614213565b838801955050505b50505092915050565b6000614250828587613c41565b915061425b8261418c565b915061426782846141c4565b9150819050949350505050565b600061428082866141c4565b915061428c8285613fe5565b915061429882846141c4565b9150819050949350505050565b7f7b226e616d65223a202200000000000000000000000000000000000000000000600082015250565b60006142db600a83613c36565b91506142e6826142a5565b600a82019050919050565b7f222c20226465736372697074696f6e223a204120646f6d61696e206f6e20534260008201527f206e616d6520736572766963652c2022696d616765223a2022646174613a696d60208201527f6167652f7376672b786d6c3b6261736536342c00000000000000000000000000604082015250565b6000614373605383613c36565b915061437e826142f1565b605382019050919050565b7f222c226c656e677468223a000000000000000000000000000000000000000000600082015250565b60006143bf600b83613c36565b91506143ca82614389565b600b82019050919050565b7f227d000000000000000000000000000000000000000000000000000000000000600082015250565b600061440b600283613c36565b9150614416826143d5565b600282019050919050565b600061442c826142ce565b9150614439828688613c41565b915061444482614366565b91506144508285613fe5565b915061445b826143b2565b91506144678284613fe5565b9150614472826143fe565b915081905095945050505050565b7f646174613a6170706c69636174696f6e2f6a736f6e3b6261736536342c000000600082015250565b60006144b6601d83613c36565b91506144c182614480565b601d82019050919050565b60006144d7826144a9565b91506144e38284613fe5565b915081905092915050565b7f4e487b7100000000000000000000000000000000000000000000000000000000600052603260045260246000fd5b7f4e487b7100000000000000000000000000000000000000000000000000000000600052601160045260246000fd5b600061455782613264565b91507fffffffffffffffffffffffffffffffffffffffffffffffffffffffffffffffff82141561458a5761458961451d565b5b600182019050919050565b7f446f6d61696e204e616d652063616e6e6f74206265206c656674204e554c4c00600082015250565b60006145cb601f836131b4565b91506145d682614595565b602082019050919050565b600060208201905081810360008301526145fa816145be565b9050919050565b7f4552433732313a206f70657261746f7220717565727920666f72206e6f6e657860008201527f697374656e7420746f6b656e0000000000000000000000000000000000000000602082015250565b600061465d602c836131b4565b915061466882614601565b604082019050919050565b6000602082019050818103600083015261468c81614650565b9050919050565b7f4552433732313a207472616e736665722066726f6d20696e636f72726563742060008201527f6f776e6572000000000000000000000000000000000000000000000000000000602082015250565b60006146ef6025836131b4565b91506146fa82614693565b604082019050919050565b6000602082019050818103600083015261471e816146e2565b9050919050565b7f4552433732313a207472616e7366657220746f20746865207a65726f2061646460008201527f7265737300000000000000000000000000000000000000000000000000000000602082015250565b60006147816024836131b4565b915061478c82614725565b604082019050919050565b600060208201905081810360008301526147b081614774565b9050919050565b60006147c282613264565b91506147cd83613264565b9250828210156147e0576147df61451d565b5b828203905092915050565b60006147f682613264565b915061480183613264565b9250827fffffffffffffffffffffffffffffffffffffffffffffffffffffffffffffffff038211156148365761483561451d565b5b828201905092915050565b7f4552433732313a20617070726f766520746f2063616c6c657200000000000000600082015250565b60006148776019836131b4565b915061488282614841565b602082019050919050565b600060208201905081810360008301526148a68161486a565b9050919050565b7f4552433732313a207472616e7366657220746f206e6f6e20455243373231526560008201527f63656976657220696d706c656d656e7465720000000000000000000000000000602082015250565b60006149096032836131b4565b9150614914826148ad565b604082019050919050565b60006020820190508181036000830152614938816148fc565b9050919050565b7f4552433732314d657461646174613a2055524920717565727920666f72206e6f60008201527f6e6578697374656e7420746f6b656e0000000000000000000000000000000000602082015250565b600061499b602f836131b4565b91506149a68261493f565b604082019050919050565b600060208201905081810360008301526149ca8161498e565b9050919050565b7f4e487b7100000000000000000000000000000000000000000000000000000000600052601260045260246000fd5b6000614a0b82613264565b9150614a1683613264565b925082614a2657614a256149d1565b5b828204905092915050565b6000614a3c82613264565b9150614a4783613264565b925082614a5757614a566149d1565b5b828206905092915050565b60006080820190508181036000830152614a7c8187613209565b90508181036020830152614a908186613209565b90508181036040830152614aa48185613209565b9050614ab3606083018461363a565b95945050505050565b6000614ac782613264565b9150614ad283613264565b9250817fffffffffffffffffffffffffffffffffffffffffffffffffffffffffffffffff0483118215151615614b0b57614b0a61451d565b5b828202905092915050565b60006040820190508181036000830152614b308185613209565b90508181036020830152614b448184613209565b90509392505050565b7f45524337323155524953746f726167653a2055524920736574206f66206e6f6e60008201527f6578697374656e7420746f6b656e000000000000000000000000000000000000602082015250565b6000614ba9602e836131b4565b9150614bb482614b4d565b604082019050919050565b60006020820190508181036000830152614bd881614b9c565b9050919050565b60006040820190508181036000830152614bf98185613209565b9050614c0860208301846132f9565b9392505050565b60006060820190508181036000830152614c298186613209565b9050614c38602083018561363a565b8181036040830152614c4a8184613209565b9050949350505050565b600081519050919050565b600082825260208201905092915050565b6000614c7b82614c54565b614c858185614c5f565b9350614c958185602086016131c5565b614c9e816131f8565b840191505092915050565b6000608082019050614cbe60008301876132f9565b614ccb60208301866132f9565b614cd8604083018561363a565b8181036060830152614cea8184614c70565b905095945050505050565b600081519050614d048161311a565b92915050565b600060208284031215614d2057614d1f6130e4565b5b6000614d2e84828501614cf5565b91505092915050565b7f4552433732313a206d696e7420746f20746865207a65726f2061646472657373600082015250565b6000614d6d6020836131b4565b9150614d7882614d37565b602082019050919050565b60006020820190508181036000830152614d9c81614d60565b9050919050565b7f4552433732313a20746f6b656e20616c7265616479206d696e74656400000000600082015250565b6000614dd9601c836131b4565b9150614de482614da3565b602082019050919050565b60006020820190508181036000830152614e0881614dcc565b905091905056fe5265676973746572696e672025732e2573206f6e20636f6e7472616374207769746820746f6b65696e2069642025734142434445464748494a4b4c4d4e4f505152535455565758595a6162636465666768696a6b6c6d6e6f707172737475767778797a303132333435363738392b2fa26469706673582212200cae910fbc87e499fa2cea7fb673fbbc67efc66f02b51e61e73e96de3aba814764736f6c634300080a003354686973206973206d7920646f6d61696e20636f6e747261637420287072696e7465642066726f6d20636f6e7374727563746f72293c73766720786d6c6e733d22687474703a2f2f7777772e77332e6f72672f323030302f737667222077696474683d2232373022206865696768743d22323730222066696c6c3d226e6f6e65223e3c706174682066696c6c3d2275726c282342292220643d224d302030683237307632373048307a222f3e3c646566733e3c66696c7465722069643d22412220636f6c6f722d696e746572706f6c6174696f6e2d66696c746572733d2273524742222066696c746572556e6974733d227573657253706163654f6e55736522206865696768743d22323730222077696474683d22323730223e3c666544726f70536861646f772064783d2230222064793d22312220737464446576696174696f6e3d22322220666c6f6f642d6f7061636974793d222e323235222077696474683d223230302522206865696768743d2232303025222f3e3c2f66696c7465723e3c2f646566733e3c7061746820643d224d37322e3836332034322e393439632d2e3636382d2e3338372d312e3432362d2e35392d322e3139372d2e3539732d312e3532392e3230342d322e3139372e35396c2d31302e30383120362e3033322d362e383520332e3933342d31302e30383120362e303332632d2e3636382e3338372d312e3432362e35392d322e3139372e3539732d312e3532392d2e3230342d322e3139372d2e35396c2d382e3031332d342e37323161342e353220342e35322030203020312d312e3538392d312e363136632d2e3338342d2e3636352d2e3539342d312e3431382d2e3630382d322e313837762d392e3331632d2e3031332d2e3737352e3138352d312e3533382e3537322d322e32303861342e323520342e323520302030203120312e3632352d312e3539356c372e3838342d342e3539632e3636382d2e33383720312e3432362d2e353920322e3139372d2e353973312e3532392e32303420322e3139372e35396c372e38383420342e353961342e353220342e353220302030203120312e35383920312e363136632e3338342e3636352e35393420312e3431382e36303820322e31383776362e3033326c362e38352d342e303635762d362e303332632e3031332d2e3737352d2e3138352d312e3533382d2e3537322d322e32303861342e323520342e32352030203020302d312e3632352d312e3539354c34312e3435362032342e3539632d2e3636382d2e3338372d312e3432362d2e35392d322e3139372d2e3539732d312e3532392e3230342d322e3139372e35396c2d31342e38363420382e36353561342e323520342e32352030203020302d312e36323520312e353935632d2e3338372e36372d2e35383520312e3433342d2e35373220322e3230387631372e343431632d2e3031332e3737352e31383520312e3533382e35373220322e32303861342e323520342e323520302030203020312e36323520312e3539356c31342e38363420382e363535632e3636382e33383720312e3432362e353920322e3139372e353973312e3532392d2e32303420322e3139372d2e35396c31302e3038312d352e39303120362e38352d342e3036352031302e3038312d352e393031632e3636382d2e33383720312e3432362d2e353920322e3139372d2e353973312e3532392e32303420322e3139372e35396c372e38383420342e353961342e353220342e353220302030203120312e35383920312e363136632e3338342e3636352e35393420312e3431382e36303820322e31383776392e333131632e3031332e3737352d2e31383520312e3533382d2e35373220322e32303861342e323520342e32352030203020312d312e36323520312e3539356c2d372e38383420342e373231632d2e3636382e3338372d312e3432362e35392d322e3139372e3539732d312e3532392d2e3230342d322e3139372d2e35396c2d372e3838342d342e353961342e353220342e35322030203020312d312e3538392d312e363136632d2e3338352d2e3636352d2e3539342d312e3431382d2e3630382d322e313837762d362e3033326c2d362e383520342e30363576362e303332632d2e3031332e3737352e31383520312e3533382e35373220322e32303861342e323520342e323520302030203020312e36323520312e3539356c31342e38363420382e363535632e3636382e33383720312e3432362e353920322e3139372e353973312e3532392d2e32303420322e3139372d2e35396c31342e3836342d382e363535632e3635372d2e33393420312e3230342d2e393520312e3538392d312e363136732e3539342d312e3431382e3630392d322e3138375635352e353338632e3031332d2e3737352d2e3138352d312e3533382d2e3537322d322e32303861342e323520342e32352030203020302d312e3632352d312e3539356c2d31342e3939332d382e3738367a222066696c6c3d2223666666222f3e3c646566733e3c6c696e6561724772616469656e742069643d2242222078313d2230222079313d2230222078323d22323730222079323d2232373022206772616469656e74556e6974733d227573657253706163654f6e557365223e3c73746f702073746f702d636f6c6f723d2223636235656565222f3e3c73746f70206f66667365743d2231222073746f702d636f6c6f723d2223306364376534222073746f702d6f7061636974793d222e3939222f3e3c2f6c696e6561724772616469656e743e3c2f646566733e3c7465787420783d2233322e352220793d223233312220666f6e742d73697a653d223237222066696c6c3d2223666666222066696c7465723d2275726c282341292220666f6e742d66616d696c793d22506c7573204a616b617274612053616e732c44656a6156752053616e732c4e6f746f20436f6c6f7220456d6f6a692c4170706c6520436f6c6f7220456d6f6a692c73616e732d73657269662220666f6e742d7765696768743d22626f6c64223e",
  "linkReferences": {},
  "deployedLinkReferences": {}
}